:020000040800F2
:10000000705200209D010008A5710008A16D000834
:10001000A17100084D190008EF9E000800000000C3
:10002000000000000000000000000000E98500085A
:100030000321000800000000997A0008EB85000801
:10004000B7010008B7010008B7010008B7010008B0
:10005000B7010008B7010008B7010008B7010008A0
:10006000B7010008B7010008B7010008B701000890
:10007000B7010008B7010008B7010008B701000880
:10008000751F0008851F0008B7010008B7010008A8
:10009000B7010008B7010008B7010008B701000860
:1000A000B7010008B7010008B7010008B701000850
:1000B000B7010008B7010008B7010008B701000840
:1000C000B7010008B7010008B7010008A9820008BD
:1000D000B70100083D9D0008BD9D0008B70100085C
:1000E000B7010008B7010008B7010008B701000810
:1000F000B7010008B7010008B7010008B701000800
:10010000B7010008B7010008B7010008B7010008EF
:10011000B7010008B70100083D8F0008B7010008CB
:10012000951F0008A91F0008B91F0008C91F000873
:10013000B70100080000000000000000B70100083F
:10014000B7010008B7010008B7010008B7010008AF
:10015000D91F0008B7010008E91F00083D9E0008EC
:10016000B7010008B7010008B7010008B70100088F
:10017000B7010008B70100080000000000000000FF
:10018000B7010008B7010008DFF80CD000F052FDFD
:1001900000480047D54501087052002006488047B6
:1001A00006480047FEE7FEE7FEE7FEE7FEE7FEE75C
:1001B000FEE7FEE7FEE7FEE7AD86000889010008DE
:1001C0002DE9F05F0546002092469B46884606468C
:1001D000814640241BE0284641464746224600F01F
:1001E000F4FA53465A46C01A914110D311461846A4
:1001F000224600F0DBFA2D1A67EB01084F46224633
:100200000120002100F0D2FA17EB00094E41201E18
:10021000A4F10104DFDC484631462A464346BDE8E6
:10022000F09F40EA01039B0703D009E008C9121FB1
:1002300008C0042AFAD203E011F8013B00F8013BA0
:10024000521EF9D27047D2B201E000F8012B491ECC
:10025000FBD270470022F6E710B513460A46044663
:100260001946FFF7F0FF204610BD30B505462A4677
:100270000B4612F8010B13F8014B08B1A042F8D05D
:100280001CB1002802D06D1CF1E7284630BDCAB26F
:10029000401E10F8011F8A4202D00029F9D1002027
:1002A0007047421C10F8011B0029FBD1801A7047CF
:1002B000034611F8012B00F8012B002AF9D118464A
:1002C00070472DE9F04791460F46804604460026C8
:1002D00014F8015B2DB100F09BFA0068405DC00787
:1002E000F6D12B2D02D02D2D18D0641E4A4639464A
:1002F000204600F09AFA27B13968A14201D1C7F827
:10030000008071054FF002040BD54042002803DD48
:1003100009F036FE0460A007BDE8F08746F4806669
:10032000E4E70028F8DA09F02BFE04606FF00040E3
:10033000F2E72DE9FE4F804681EA0300C00F0C462C
:10034000009021F0004123F00045B8EB0200A941E4
:1003500005D24046214690461C460B46024623F0F5
:100360000040104347D0270DC7F30A00C3F30A51DA
:100370000290401A019040286BDAC3F3130040F456
:10038000801B0098924620B10023D2EB030A63EB56
:100390000B0B01985946C0F14002504600F006FA96
:1003A00006460D4650465946019A00F01EFA10EBDB
:1003B00008006141002487EA115284EAE7731A4376
:1003C00040D0009A62B3019A012A4FEA075215DC25
:1003D000001B61EB02014FF0004202EA0752CDE937
:1003E0000042001C41F5801132462B4600F029FBEB
:1003F00003B0BDE8F08F40462146F9E7001B61EBF2
:100400000201001C41F5801300185B412018A2F581
:10041000001747EB030140EAD570B6196D4111E0B2
:100420006D084FEA360645EAC0754FEA0752001BD1
:1004300061EB0201001C41F5801149084FEA3000D0
:100440000019514132462B4603B0BDE8F04F00F091
:10045000E9BA0098012240000023D0EB020263EBCE
:10046000E073009821464FEAE074B8EB000061EBBE
:100470000401E9E783F000435BE781F0004158E7BE
:100480002DE9FE4F81EA030404F0004421F000410D
:1004900000944FF0000B23F0004350EA01045ED0BB
:1004A00052EA03045BD0C3F30A54C1F30A552C4447
:1004B000A4F2F3340194A0FB0254C1F3130141F4FC
:1004C0008011C3F3130343F4801301FB024400FBC8
:1004D000034E840A970A44EA815447EA8357A4FBEF
:1004E000076802958D0A05FB07854FEA932C04FBEC
:1004F0000C542705029D4FEA065847EA1637B5EB1C
:1005000008056EEB070C870E920E47EA811742EA48
:100510008312A7FB0201B6EB0B0164EB00042B0D69
:1005200043EA0C335E1844EB1C50DA465146E7FBB5
:100530000201C5F313044FEA0B3343EA14534FEAA5
:100540000432019C43EA0603A4F10C040294009CCB
:10055000CDE900B400F075FA03B0BDE8F08F0020DB
:100560000146F9E72DE9F04D81EA030404F0004B60
:1005700021F0004514464FF0000A23F0004150EAF4
:10058000050220D054EA01021DD0C5F30A570246E5
:10059000C5F31303C1F31300C1F30A5640F48015E9
:1005A00043F48013A7EB0608101BD64608F2FD386B
:1005B00073EB050002D308F1010801E092185B41DA
:1005C000B8F1000F03DA00200146BDE8F08D0020ED
:1005D0004FF48011064684460EE0171B73EB0507A7
:1005E00005D3121B63EB050306434CEA010C4908D3
:1005F0004FEA300092185B4150EA0107EDD152EA10
:10060000030012D082EA040083EA0501084305D002
:10061000101BAB4106D20122002306E000224FF05E
:10062000004302E06FF0010253101AEB06004CEB9E
:10063000085110EB0A0041EB0B01BDE8F04D00F052
:10064000F1B90EB5C10F80EAE0700844CA07002175
:1006500040F233438DE80E000A460B4600F0F1F9F4
:1006600003B000BD0EB540F2334102910021CDE947
:1006700000110A460B4600F0E4F903B000BD70B566
:10068000C1F30A5201F000450024C1F3130140F206
:10069000FF3341F480119A4201DA002070BD40F22C
:1006A00033439A42A2F2334203DC524200F08DF807
:1006B00000E090402C43F1D0404270BDC1F30A529B
:1006C00010B5C1F3130140F2FF3341F480119A4297
:1006D00001DA002010BD40F233439A42A2F23342C5
:1006E00003DC524200F071F810BD904010BD00F0E4
:1006F000004230F000400AD0C10D01F56071C0F336
:10070000160042EA0151C208400711437047002019
:100710000146704730B5041E71F1000404DB4FF050
:100720000044404264EB0101141E73F1000405DB38
:100730001C464FF00043524263EB04038B4208BF58
:10074000824230BD30B5041E71F1000404DB4FF06D
:100750000044404264EB0101141E73F1000405DB08
:100760001C464FF00043524263EB0403994208BF1A
:10077000904230BD01F0004330B421F0004150EA16
:10078000010206D00A0DA2F56072C1F31301002A1E
:1007900002DC30BC00207047440F44EAC104C100B1
:1007A000E01830BC00EBC25000F0DCB8202A04DBBB
:1007B000203A00FA02F1002070479140C2F1200374
:1007C00020FA03F3194390407047202A04DB203AB3
:1007D00021FA02F00021704721FA02F3D040C2F161
:1007E00020029140084319467047202A06DBCB17A8
:1007F000203A41FA02F043EAE07306E041FA02F3DC
:10080000D040C2F1200291400843194670470000D1
:10081000004870473C5F010810B50446FFF7F8FF39
:100820000068005D00F0010010BD2DE9F05F824618
:100830000078002715468B460AF10104B946302896
:1008400001D09DB113E014F8010B0127782803D0E3
:10085000582801D045B10AE00DB1102D07D100276D
:10086000102514F8010B02E0082500E00A250026F7
:10087000B0460EE005FB080005FB06F1012701EB81
:1008800010461FFA80F8B6F5803F00D3B94614F839
:10089000010B294600F0E0F90028EBDABBF1000F6C
:1008A00005D00FB1641E00E05446CBF80040B9F10A
:1008B000000F06D009F064FB02210160C81EBDE8EC
:1008C000F09F48EA0640FAE70FB4002300B589B06C
:1008D0000CA900910B996FF00042CB601E4B069360
:1008E0001E4B07930423CDE901321D4A08920246AC
:1008F0006B46002000F03EFA09B05DF814FB70B5BD
:1009000086B006464FF0FF300091CDE9010100208E
:1009100015460C4604903246694604A8FFF7D4FFFA
:1009200002460498211825B108B1084600E0204687
:100930002860049800280DD0002A02DD0098884223
:1009400008D0081B0094CDE901043246694604A88A
:10095000FFF7BAFF06B070BDAD0F0008CB0F00085F
:10096000190800080029A8BF7047401C490008BFAB
:1009700020F00100704710B4B0FA80FC00FA0CF0CF
:1009800050EA010404BF10BC704749B1CCF1200407
:1009900021FA04F411FA0CF118BF01212143084394
:1009A000A3EB0C01CB1D4FEA00614FEA102042BFC0
:1009B000002010BC704700EBC35010440029A4BFB6
:1009C00010BC7047401C490008BF20F0010010BC5B
:1009D0007047F0B400F0004221F0004120F00040E8
:1009E000CE0DC30DC1F3160141F40001C0F3160092
:1009F0004C42154640F40000761E09E010EB44001E
:100A000002D582F0004240428842F7D840005B1E87
:100A1000B342F9DA18B1F0BC0021FFF7ACBF2846A9
:100A2000F0BC704710B5141E73F1000408DA401CC6
:100A300041F1000192185B411A4301D120F00100FD
:100A400010BD2DE9F04D92469B4611B1B1FA81F2ED
:100A500002E0B0FA80F220329046FFF7A7FE04468B
:100A60000F4640EA0A0041EA0B0153465A46084342
:100A700013D0114653EA010019D0C8F14002504684
:100A8000FFF7A3FE05460E46504659464246FFF77D
:100A90008DFE084305D0012004E020463946BDE81C
:100AA000F08D0020054346EAE0762C4337430A9850
:100AB0006305E40AA0EB08000022FD0A44EA47545B
:100AC0000A3002D500200146E9E701051019694105
:100AD000DDE9084500196941BDE8F04DA2E770B5B0
:100AE00021F0004303430CD0C1F30A550024D5EB99
:100AF000040564EB0403D617AD1AB34102DB0020F2
:100B0000014670BD201841EB025170BD2DE9F04D3A
:100B100000231A461B1A8A4103DB00200146BDE868
:100B2000F08DC1F30A52C1F3130141F480154FF067
:100B3000000BD10702D100186D41521E0027044658
:100B400040F2FF11384601EB620A3E4680460246FB
:100B500000204FF48011FFF738FEC2197141BB1815
:100B600046EB0100B4EB030C75EB000C04D3E41A64
:100B700065EB000517460E46241908F101006D418A
:100B800080463428E3DDF91946EB0600091BA8412D
:100B900003D24FF0FF32134601E0002213461BEB55
:100BA000070046EB0A51BDE8F04DFFF73BBF2DE9CA
:100BB000FE4FC3F30A5701F000450024C1F30A5663
:100BC000C3F31303C1F3130143F4801312EB020ABE
:100BD000A64641F48011009543EB030CA7F1010BED
:100BE00016E0B0EB0A0061EB0C01071E71F1000783
:100BF00007DA4FF00008D0EB080085F0004568EBFD
:100C00000101171A73EB0107EBD3761E0018494157
:100C10005E45F6DA50EA010209D0CDE900E500228E
:100C200013460296FFF70DFF03B0BDE8F08F204694
:100C30000099F9E7064C074D06E0E06840F0010333
:100C400094E8070098471034AC42F6D3FFF7A0FAB7
:100C5000405F0108605F01083A2800D2303820F078
:100C60002002412A01D3A2F13700884201D34FF07C
:100C7000FF3070472DE9FF4F087881B09946FF2873
:100C800005D0491C2D2804D00024002308E00023AF
:100C90000BE00124F9E703EB830300EB4303491C5A
:100CA0000878FF28F7D104B15B4200200090147847
:100CB00001462D2C01D02B2C04D1521C2D2C12D0EE
:100CC0000024009400251678FF2E0ED00A24A0FBE5
:100CD00004C801FB0481002700FB0711521C16EB1E
:100CE0000C006941EFE70124EBE7994450EA010267
:100CF0000ED00024AA4D2646DFF8A88200F076F92F
:100D000082468B46B9F1000009DAC9F100071BE001
:100D100001980021C0E9001105B0BDE8F08F074639
:100D200012E0F80707D022462B4630464146FFF72F
:100D3000A7FB0646884622462B4610461946FFF773
:100D40009FFB04460D467F10002FEAD1B9F1000F3A
:100D5000324643465046594602DAFFF703FC01E0AB
:100D6000FFF78EFB009A0AB181F00041019AC2E9B7
:100D70000001D1E72DE9FF4F1F468DB0D7E90146AD
:100D80004FF0FF382E2045464FF000090B90B9690F
:100D90006D1C0E988847396A824688470028F6D12C
:100DA000BAF1FF3F0AD024F4D064002E11DDBAF16D
:100DB0002B0F08D0BAF12D0F0BD102E0404611B035
:100DC000ABE744F48064B9696D1C0E98884782468D
:100DD000761E6946600501D52D2000E02B208DF898
:100DE000000001F1010B0DF1200809E0B9696D1C4B
:100DF0000E98884782460F9844F40074761E05606A
:100E0000002E02DDBAF1300FF0D00B998A453ED1A9
:100E100044F0800406E00F99681CA9F1010944F42C
:100E200000740860B9696D1C761E0E98884782466A
:100E30003028F0D02BE00B998A4505D1200603D449
:100E400044F08004761E18E050460BF0B1F908B368
:100E50000DF11301761E44F400748B4508D2AAF1FB
:100E600030000BF8010B200607D5A9F1010003E0C3
:100E7000200602D409F101008146A00502D50F9990
:100E8000681C0860B9696D1C0E9888478246002E60
:100E9000D1DC53E0002E51DDBAF1650F02D0BAF17A
:100EA000450F4BD1A00549D5B9696D1C24F4407498
:100EB000761E0E9888478246002E0CDD2B2804D023
:100EC000BAF12D0F07D144F48074B9696D1C0E98E6
:100ED00088478246761EE00501D52D2100E02B21B2
:100EE00008F8011BCDF82C8021E00DF12901761EB8
:100EF00044F4007488450CD2AAF1300010F0FF00D1
:100F000088F8000002D10B99884509D908F1010839
:100F100006E0E00501D5244801E042F20F70814669
:100F2000B9696D1C0E98884782460F980560002E9F
:100F300004DD50460BF03CF90028D6D1F9690E9833
:100F40008847FF208BF8000088F8000000200690FA
:100F500007904B466A4608A906A8FFF78BFEA00536
:100F600002D46FF001002AE714F0240F0AD0E00742
:100F700014D1DDE906123868031D3B600068C0E942
:100F800000120BE0DDE90601FFF7F4FB0146E00784
:100F900004D13868021D3A600068016028460EE7F7
:100FA000000024400000F03FF1D8FFFF426842B14A
:100FB000016811F8013B23B1521EC0E90012184626
:100FC00070470121C160881E704742685AB1C368EA
:100FD000016843B983688B4205D0491E521CC0E9A1
:100FE0000012002070474FF0FF3070470EB540F2FE
:100FF000334202920022CDE900221346FFF721FD81
:1010000003B000BD70B58C1810F8015B15F0070334
:1010100001D110F8013B2A1106D110F8012B03E091
:1010200010F8016B01F8016B5B1EF9D12B0705D499
:101030000023521E0DD401F8013BFAE710F8013BE2
:10104000CB1A921C03E013F8015B01F8015B521EFE
:10105000F9D5A142D8D3002070BD70B50546AC6B60
:10106000206C00F0500050BB206C40F400702064F5
:101070002068806800F04050E8B9207ED8B9206828
:10108000C06A00F4700020B12068806800F48060BD
:1010900088B92068406820F0200021684860206CF2
:1010A00020F480702064206C00F4805018B9206C0B
:1010B00040F001002064204603F06CF90BE0206C46
:1010C00000F0100018B1204603F066F903E0A06BB1
:1010D000C16C2846884770BD70B50546AC6B402092
:1010E0002064606C40F004006064204603F054F912
:1010F00070BD70B50446A56B284603F04CF970BD71
:1011000010B502F01BF938B900F022FC00F0B8F875
:101110000121024803F046FE10BD00000008024015
:1011200055494A6822F440324A604A6843681A4383
:101130004A600268526822F4807203685A6002684A
:101140005368026943EA022203685A6002685268DF
:1011500022F0407203685A600268526883681A433A
:1011600003685A600268926822F4006203689A6019
:1011700002689268C3681A4303689A603F4B826AA8
:101180009A4218D00268926822F0706203689A60EE
:1011900002689268836A1A4303689A6002689268D8
:1011A00022F0405203689A6002689268C36A1A4348
:1011B00003689A600BE00268926822F0706203682C
:1011C0009A600268926822F0405203689A6002684E
:1011D000926822F0020203689A6002689368027EB5
:1011E00043EA420203689A602022125CA2B10268BC
:1011F000526842F4006203685A600268526822F43E
:10120000604203685A6002685368426A521E43EAA9
:10121000423203685A6005E00268526822F40062B4
:1012200003685A600268D26A22F470020368DA62C4
:101230000268D36A828B521E43EA02520368DA6262
:101240000268926822F4007203689A6002689368E8
:1012500090F8302043EA422203689A60026892685C
:1012600022F4806203689A6002689368426943EAE4
:10127000822203689A607047002301400100000F3A
:1012800010B5044803F0FEF90A220349014803F0AF
:101290001BF910BD281B0020761A002010B508F09D
:1012A000D7FDFFF72DFF06F027FC06F0F7FB2248DD
:1012B000007818B906F010FE00F09AF81F48007880
:1012C00020B100201D49087000F082FB1C48007806
:1012D00028B100201A49087004201A4908701A48D9
:1012E0000078012826DB0AF071FF002016490870FB
:1012F00006F09CFE06F05CFE144890F851000128B0
:1013000018D106221249114804F084FB044644B166
:10131000104890F8230040F008000E4981F823009F
:1013200007E00C4890F8230020F00800094981F8F4
:10133000230000BF10BD00000C000020A000002012
:10134000A10000208401002006000020D01B002006
:1013500000000020E719002010B54FF480721A49F0
:101360001A4805F045FC19480068C06840F01000B4
:1013700016490968C8604FF480721549154805F090
:1013800037FC14480068C06840F010001149096833
:10139000C86006F063FD00200F4908600F4908701F
:1013A0000F4804F067FD0F480068006840F04000F7
:1013B0000C49096808600A220B490C4803F084F8BC
:1013C00013F0B4FF10BD0000C8170020781D0020E6
:1013D000C8180020C01D0020080000200C000020BC
:1013E000301D0020D01B0020761A0020281B002072
:1013F0002DE9F0412DED048BB64C002600279FED22
:10140000B60AF0EE408AB548007838BB94ED020B7E
:10141000B34880ED000B94ED040BB24880ED000B57
:1014200094ED060AB04880ED000A94ED0E0AAF482C
:1014300080ED000A94ED130AAD4880ED000A94F89F
:101440003000AC49087094F84800AB49087001209E
:10145000A2490870BDEC048BBDE8F081207868B328
:10146000207F01282AD194ED021BB0EE410AF0EE54
:10147000610A9B4890ED001B53EC112B51EC100BB3
:10148000FFF748F919D194ED041BB0EE410AF0EED4
:10149000610A944890ED001B53EC112B51EC100B9A
:1014A000FFF738F909D194ED060A8F48D0ED000A0C
:1014B000B4EE600AF1EE10FA00D0012694F8300084
:1014C000A8B194F830008B490978884209D194ED8D
:1014D0000E0A8648D0ED000AB4EE600AF1EE10FA6A
:1014E00032D0012794ED0E0AF0EE408A2CE094F8F9
:1014F0004800A8B194F848007F490978884209D18A
:1015000094ED130A7A48D0ED000AB4EE600AF1EEC9
:1015100010FA19D0012794ED130AF0EE408A13E077
:1015200094F8300073490978884205D194F848004E
:1015300071490978884207D094F830006D490870E5
:1015400094F848006C4908700EB907B982E766B391
:1015500094ED021BB0EE410AF0EE610A51EC100B63
:10156000FFF708F9804694ED041BB0EE410AF0EE57
:10157000610A51EC100BFFF7FDF8054694ED069A51
:101580005E48C0F80080456080ED029A94ED020B41
:10159000534880ED000B94ED040B524880ED000B96
:1015A00094ED060A504880ED000A07B952E794F816
:1015B00030005049087094F848004F49087094ED85
:1015C0000E0A4A4880ED000A94ED130A484880ED5F
:1015D000000A4B48007848B94A48C0ED008A01200B
:1015E000474908704848C0ED088A33E7454890ED00
:1015F000000A38EEC08A9FED450AB4EEC08AF1EECB
:1016000010FA06DD9FED420A38EE400AB0EE408A3D
:101610000CE09FED400AB4EEC08AF1EE10FA05D25C
:101620009FED3B0A38EE000AB0EE408A9FED3A0A81
:10163000B4EEC08AF1EE10FA07DD9FED380AB4EE81
:10164000C08AF1EE10FA00D204E72E4890ED000AAD
:10165000F5EE000A00EE880A80ED000A90ED000A1F
:10166000DFED2B0AB4EEE00AF1EE10FA08DB90EDA4
:10167000000ADFED270A30EE600A80ED000A0FE075
:10168000204890ED000AB5EEC00AF1EE10FA07D23C
:1016900090ED000ADFED1E0A30EE200A80ED000A10
:1016A000184890ED000A1E4880ED000A90ED000AEF
:1016B000DFED1C0A30EE200ADFED1B0A20EE200AC7
:1016C000BCEEC00A10EE100A1849A1F8430000BF92
:1016D000C0E600003020002000000000A200002032
:1016E000A8000020B0000020B8000020BC000020AE
:1016F000C0000020C4000020C5000020BC1A00204B
:10170000CC000020C8000020A03E00200000344390
:101710000000B443000034C3CDCC4CBDCDCC4C3D17
:10172000280000200000B4420000C842E719002051
:1017300008B508B1026802B908BD0268116801F075
:101740000F0202B9F8E701F0010252B100BF002216
:10175000009202681268009202685268009200BF0C
:1017600000BF01F0020252B100BF002200920268E5
:101770001268009202685268009200BF00BF01F038
:10178000040252B100BF0022009202681268009267
:1017900002685268009200BF00BF01F0080252B117
:1017A00000BF00220092026812680092026852682C
:1017B000009200BF00BF00BFBEE770B504460D46F3
:1017C00016460CB105B10EB9012070BD202084F879
:1017D00042002046FFF7ACFF32462946204605F07E
:1017E00007FA08B10120F0E72068C06840F0100057
:1017F0002168C8600020E8E708B1016801B97047B6
:1018000090F84110212900D0F9E70168096801F03A
:10181000400140291ED10168C96801F04001C9B1E9
:101820000168C96821F040010268D16000BF00BFB3
:101830000268143252E8002F22F08001026814324C
:1018400042E80013002BF3D100BF0021C184202106
:1018500080F8411000BFD2E710B504460CB12068F3
:1018600000B910BD00BF00BF2168143151E8001F4E
:1018700021F080002168143141E80002002AF3D1F0
:1018800000BF2068C06820F040002168C860A06BDD
:10189000B0B1A06B90F83500022802D1A06B02F025
:1018A00031FFA06B90F83400012805D100BF002063
:1018B000A16B81F8340000BF0120A16B81F83500D5
:1018C0006FF04000216808600020E084202084F848
:1018D000410000BFC5E770B505460C462846FFF736
:1018E0008BFF95F84100212802D00020206070BDB8
:1018F000206818B903F066FA2060F8E703F062FA8E
:101900002168401A052804D32846FFF7A5FF0020C8
:10191000206000BFEBE70000094800780004084998
:10192000497840EA0120064989780843C0F39400C9
:1019300004490860084600680349086070470000D1
:1019400000000020DC0000201800002000BFFEE79F
:1019500000200149087070470F00002070B505464F
:101960002C4604B970BDA078102800D0FAE7E078C2
:101970000A2801DCE07800B9F4E70DF045FAE078D8
:10198000034A52F82010201D884700BFEAE70000F4
:101990003400002010B586B00446142101A8FEF7DB
:1019A00059FC01208DF8040001A813F0DFFC06B0FB
:1019B00010BD10B586B00446142101A8FEF74AFCFC
:1019C00006208DF8040001A813F0D0FC06B010BD6D
:1019D00070B52DED088B0446E1780906A27841EA3E
:1019E0000241627841EA0221227841EA0200FEF7D0
:1019F00028FE41EC1B0B9FED270B53EC102BFEF741
:101A00003FFD41EC180BE1790906A27941EA024158
:101A1000627941EA0221227941EA0200FEF711FED1
:101A200041EC1B0B9FED1B0B53EC102BFEF728FD1D
:101A300041EC190BE07A0006A17A40EA0140617A94
:101A400040EA0120217A084300EE100AB8EEC00AED
:101A5000B0EE40AA257B11480068401C0F49086081
:101A60000F4880ED008B0F4880ED009B0E4880ED05
:101A700002AA51EC180BFEF77DFE0B49486051ECB1
:101A8000190BFEF777FE0849086001F087FBBDECF3
:101A9000088B70BD00000080B5F8E43E1400002003
:101AA0008000002088000020B01A0020704710B588
:101AB0002DED028B86B004462078617840EA012043
:101AC00000B208EE900AA078E17840EA012000B266
:101AD00008EE100A142101A8FEF7BCFB03208DF8C4
:101AE0000400B8EEE80A8DED020AB8EEC80A8DEDE2
:101AF000030A06B0BDEC028B10BD00002DE9F047D3
:101B00002DED068B044600224FF400617F4803F060
:101B100053F94FF00009E0780006A17840EA01404F
:101B2000617840EA0120217840EA0105E079000669
:101B3000A17940EA0140617940EA0120217940EA37
:101B40000106A07AE17A40EA01200FFA80F8207AB3
:101B5000617A40EA012007B200EE108AB8EEC00AAE
:101B6000B0EE408AE07B0006A17B40EA0140617B49
:101B700040EA0120217B084365490860E07C0006BB
:101B8000A17C40EA0140617C40EA0120217C0843BD
:101B900060490860604885420AD06048854207DB9A
:101BA0004042854204DC5E4845604FF0010903E095
:101BB000BDEC068BBDE8F087574886420AD05948ED
:101BC000864207DB4042864204DC554886604FF07F
:101BD000010900E0ECE717F57A7F0ADB47F23050A5
:101BE000874206DC4E488781A0F80E804FF001093D
:101BF00000E0DDE79FED4C0AB4EEC08AF1EE10FA8A
:101C000007DD9FED4A0AB4EEC08AF1EE10FA00D269
:101C1000CEE740480068B42808DD3E48006810F16F
:101C2000B40F03DA00203B490860C1E718EE100A40
:101C3000FEF75DFD41EC1A0B9FED3D0B53EC102BB5
:101C4000FEF71EFC41EC190BFEF794FD3A49886142
:101C5000304890ED000AB8EEC00A10EE100AFEF708
:101C600046FD41EC1A0B9FED320B53EC102BFEF7A7
:101C700007FC41EC190BFEF77DFD2F49C861244894
:101C800090ED000AB8EEC00A10EE100AFEF72FFD24
:101C900041EC1A0B9FED260B53EC102BFEF7F0FBDB
:101CA00041EC190BFEF766FD2349086200EE107A3D
:101CB000B8EEC00A214880ED020A00EE106AB8EEC4
:101CC000C00ADFED1F0A80EE201A80ED001A00EE38
:101CD000105AB8EEC00ADFED1A0A80EE201A80ED25
:101CE000011A084690ED080ADFED160AB4EEE00A84
:101CF000F1EE10FA07DB90ED080ADFED120A30EE84
:101D0000600A80ED080A00BF52E7000000080240A8
:101D10002C00002030000020005A62028057EDFEA7
:101D20008A1A0020C0AB76FF00003443000034C3A1
:101D30007B14AE47E17A843FA03E0020A41A002025
:101D40000050C3470000B44310B52DED028B86B0A0
:101D500004462078617840EA012000B208EE900A3B
:101D6000A078E17840EA012000B208EE100A1421C0
:101D700001A8FEF76FFA02208DF80400B8EEE80A19
:101D80008DED020AB8EEC80A8DED030A01A813F022
:101D9000EDFA06B0BDEC028B10BD000070B52DED64
:101DA000028B86B0044625786078A17840EA01204D
:101DB00008EE100AE678E078217940EA012008EE82
:101DC000900A142101A8FEF745FA0A208DF80400B4
:101DD0008DF80850B8EE480ADFED0B0A20EE200A15
:101DE0008DED030A8DF81060B8EE680ADFED060A83
:101DF00020EE200A8DED050A01A813F0B7FA06B00F
:101E0000BDEC028B70BD00000AD7233C30B52DED30
:101E1000028B85B005461648B0F9180008EE100A86
:101E20001348B0F91A0008EE900A1148047F1421F3
:101E30006846FEF70FFA05208DF80000B8EEC80AD4
:101E4000DFED0C0A20EE200A8DED010AB8EEE80A5B
:101E5000DFED080A20EE200A8DED020A8DF80C4015
:101E6000684613F083FA05B0BDEC028B30BD00006C
:101E7000C81900200AD7233C7047000010B52DED8B
:101E8000048B304800882F49498808442D498988A7
:101E900008442C49C98808442A4909890844294921
:101EA000498908442749898908442649C989084439
:101EB0002449098A08442349498A08442249086078
:101EC00008460068FEF7CEFB41EC190B9FED1F0B97
:101ED00053EC102BFEF7D4FA41EC180BFEF74AFC3A
:101EE0001C49086008460068FEF701FC41EC190B2C
:101EF0009FED190B53EC102BFEF7C2FA41EC180BB7
:101F0000FEF738FC16490860084690ED000ADFED40
:101F1000150A30EE600A10EE101A0846FEF7E7FBCD
:101F200041EC190B9FED100B53EC102BFEF7A8FAA8
:101F300041EC180BFEF71EFC0D490860BDEC048B4C
:101F400010BD0000761A0020F80100209A99999996
:101F50009999B93FFC0100203F80C9999CC9E93F8C
:101F6000000200200040CE4436CB6EF0C1078F3F08
:101F70005C01002010B5024802F032FC10BD0000E8
:101F8000101F002010B5024802F02AFC10BD00000E
:101F9000701F002010B506F081F9024802F020FC05
:101FA00010BD0000701B002010B5024802F018FCA4
:101FB00010BD0000D01F002010B5024802F010FC38
:101FC00010BD0000281C002010B5024802F008FCDB
:101FD00010BD0000881C002010B5024802F000FC73
:101FE00010BD0000501E002010B5024802F0F8FBA2
:101FF00010BD0000B01E00200146087810381823DC
:10200000B0FBF3F20848805CC865032A05D908686C
:102010006FF30900001D886503E008686FF309008D
:102020008865886D70470000B45B01080146002098
:102030008A6A8B69CBB932B1012A0DD0022A03D04A
:10204000032A10D10EE000BFCB6A03F08073B3F116
:10205000807F00D1012007E0CB6AB3F1C07F00D1BF
:10206000012001E000E000BF34E08B69B3F5005FC0
:102070001AD132B1012A07D0022A03D0032A11D182
:102080000AE000BF01200EE0CB6A03F08073B3F1D9
:10209000807F00D1012006E0CB6AB3F1C07F00D180
:1020A000012000E000BF15E032B1012A05D0022A6C
:1020B00004D0032A0CD103E000BF00BF012008E0D8
:1020C000CB6A03F08073B3F1807F00D1012000E080
:1020D00000BF00BF704730B50468246824F4802432
:1020E00005682C60046863608468402C04D104682F
:1020F000A2600468E16003E00468A1600468E26033
:1021000030BD704772B600BFFEE7000010B52DED80
:10211000068BB0EE408A2848007828B10122D1020F
:10212000264802F049FE05E000224FF400612348F2
:1021300002F042FEB5EEC08AF1EE10FA06DD002292
:102140004FF480511D4802F037FE04E001221103D4
:102150001A4802F031FE9FED1A0AB4EEC08AF1EE81
:1021600010FA04DD9FED160AB0EE408A0AE09FEDFA
:10217000150AB4EEC08AF1EE10FA03D29FED110AEF
:10218000B0EE408A18EE100AFEF7B1FA41EC1A0BD5
:10219000B0EE4A0AF0EE6A0A08F066FAB0EE409A2B
:1021A000F0EE609A51EC190BFEF788FA06490860C8
:1021B000BDEC068B10BD00008D0100200008024020
:1021C00000408345004083C53404004010B52DED28
:1021D0000A8BF0EE408AB0EE608AB0EE419AF0EEE3
:1021E000619A5E48006800287DD118EE100AFEF75B
:1021F0007EFA41EC1C0B53EC1C2B9FED590B51EC60
:10220000100BFEF7AFF941EC1A0B18EE900AFEF72F
:102210006EFA41EC1B0B53EC1A2BFEF793FA13D812
:1022200018EE100AFEF763FA41EC1B0B53EC1B2B64
:102230009FED4B0B51EC100BFEF794F941EC1A0B90
:10224000FEF798FA08EE900A18EE900AFEF74FFA99
:1022500041EC1B0B9FED440B53EC102BFEF710F9D8
:1022600041EC1A0BFEF786FA414908600846D0EDAA
:10227000000AB0EE001A81EE200A30EE080A3D484E
:1022800080ED000A0068FEF732FA41EC1B0B53ECBC
:102290001B2B9FED390B51EC100BFEF763F941EC52
:1022A0001A0BFEF767FA3649C1F8C401084690EDEB
:1022B000710A10EE101A0846FEF719FA41EC1B0BD2
:1022C0009FED300B53EC102BFEF7DAF841EC1A0BB4
:1022D000FEF750FA2A49C1F8C0012548D0ED000A9E
:1022E000B0EE001A00E012E081EE200A30EE480A5B
:1022F0002048D0ED000A80EE201A084680ED731ABF
:10230000B7EE000A80ED720A0120144908601C48EB
:1023100090ED360A80ED370A80ED369A90ED380A56
:1023200080ED390A90ED730AD0ED390A20EE200ACB
:10233000D0ED700A90ED361A00EE810AD0ED710AE8
:1023400090ED371A00EE810A80ED380A90ED380AD8
:1023500020EE290ABDEC0A8B10BD00003C170020BE
:10236000000000000000D03F1F85EB51B81E19404F
:10237000401700204417002000000000000000C0AB
:1023800068480020000000000000F0BF10B52DEDEF
:10239000108B86B00446F0EE408AB0EE608AB0EE54
:1023A000419AF0EE619AFE48006800287ED118EE4E
:1023B000100AFEF79CF941EC1C0B53EC1C2B9FED13
:1023C000F90B51EC100BFEF7CDF841EC1A0B18EE9F
:1023D000900AFEF78CF941EC1B0B53EC1A2BFEF71D
:1023E000B1F913D818EE100AFEF781F941EC1B0B76
:1023F00053EC1B2B9FEDEB0B51EC100BFEF7B2F8DF
:1024000041EC1A0BFEF7B6F908EE900A18EE900AA6
:10241000FEF76DF941EC1B0B9FEDE40B53EC102B19
:10242000FEF72EF841EC1A0BFEF7A4F9E14908601B
:10243000022C01DD022402E0012C00DA0124012C2F
:1024400059D1DC48D0ED000AB0EE001A81EE200A26
:1024500030EE080AD84880ED000A9FEDD80AD84827
:1024600080ED7A0AD4480068FEF741F941EC1B0B75
:1024700053EC1B2B9FEDD30B51EC100BFEF772F8B6
:1024800041EC1A0BFEF776F9CD49C1F8E401084694
:1024900090ED790A10EE101A0846FEF728F941EC83
:1024A0001B0B9FEDCA0B53EC102B00E001E1FDF775
:1024B000E7FF41EC1A0BFEF75DF9C149C1F8E001F5
:1024C0009FEDBE0A084680ED7D0ABA48D0ED000AAD
:1024D000B0EE001A81EE200A30EE480AB648D0ED80
:1024E000000A80EE201A084680ED7C1AB7EE000A3A
:1024F00080ED7B0ADAE0AF4890ED000A20EE000A9A
:1025000020EE080A20EE080A10EE101A0846FEF720
:10251000EEF841EC1B0B18EE100AFEF7E8F8CDE9D7
:102520000401A4480068FEF7E2F841EC1F0B9FEDA0
:10253000A90B53EC102BFDF7A3FF41EC1E0B9DEDF7
:10254000040B53EC102BFDF79BFF41EC1D0B9FED93
:10255000A30B53EC102BFDF7ECFE41EC1C0B53ECE2
:102560001B2BFDF7E6FE41EC1A0BFEF703F99D4924
:102570000860904890ED000A20EE000AF0EE000A94
:1025800020EE200A20EE480A0846D0ED000A80EE30
:10259000201A8B4880ED7A1A9FED880A80ED790A1F
:1025A00090ED7A0A10EE101A0846FEF7A0F841ECFA
:1025B0001B0B9FED860B53EC102BFDF761FF41ECDD
:1025C0001A0BFEF7D7F87E49C1F8E001854800688C
:1025D000FEF78DF8CDE90201764890ED000A20EE75
:1025E000000A20EE080A20EE080A10EE101A08462B
:1025F000FEF77DF841EC1B0B18EE100AFEF777F89A
:1026000041EC1D0B6B480068FEF771F841EC1E0BA6
:102610009FED700B53EC102BFDF732FF41EC1F0BBD
:1026200053EC1D2BFDF72CFF41EC1C0B53EC1B2B2B
:10263000FDF720FF9FED690B53EC102BCDE9000156
:102640009DED000B51EC100BFDF714FF41EC1A0B44
:102650009DED020B53EC102BFDF784FFCDE9040137
:102660009DED040B51EC100BFEF784F85449C1F8B2
:10267000F401504890ED000AF0EE000A20EE200A26
:10268000D0ED000A20EE200A60EE080AB2EE000A41
:1026900000EEC80A5348D0ED000A80EE201A084622
:1026A00080ED7C1AB7EE000A80ED7B0A01203C49E0
:1026B0000860434890ED440B80ED460B90ED420BD3
:1026C00080ED440B80ED429B90ED4A0B80ED4C0B6E
:1026D00090ED480B80ED4A0B90ED7A0A10EE101A3F
:1026E0000846FEF704F841EC1A0B354890ED461BFE
:1026F000B0EE410AF0EE610A53EC102B51EC1A0BCC
:10270000FDF7BEFECDE904012D4890ED790A10EEEB
:10271000101A0846FDF7EBFF41EC1B0B284890ED23
:10272000441BB0EE410AF0EE610A53EC102B51EC61
:102730001B0BFDF7A5FE41EC1A0B214890ED780A22
:1027400010EE101A0846FDF7D2FF41EC1C0B1C4896
:1027500090ED421BB0EE410AF0EE610A53EC102BF3
:1027600051EC1C0BFDF78CFE41EC1B0B144890ED5B
:102770007D0A10EE101A0846FDF7B9FF41EC1E0B5A
:102780000F4890ED4C1BB0EE410AF0EE610A53EC9D
:10279000102B51EC1E0BFDF773FE41EC1C0B23E0DC
:1027A000AC170020000000000000D03F1F85EB5157
:1027B000B81E1940B0170020B41700200000000018
:1027C0006848002000000000000000C00000000079
:1027D0000000F0BF39B4C876BE9F0640000000007C
:1027E00000001040B8170020214890ED7C0A10EE40
:1027F000101A0846FDF77BFF41EC1E0B1C4890EDBC
:102800004A1BB0EE410AF0EE610A53EC102B51EC7A
:102810001E0BFDF735FE41EC1D0B53EC1C2BFDF799
:1028200088FD53EC1B2BCDE900019DED000B51EC15
:10283000100BFDF77EFD41EC1F0B53EC1A2BFDF73F
:1028400078FDCDE902019DED040B53EC102B9DEDBD
:10285000020B51EC100BFDF76CFD054A02F590726E
:1028600003C2034890ED480B06B0BDEC108B10BDC1
:102870006848002030B52DED108B85B004460D461C
:10288000B0EE408AF0EE608AC448006800287DD12E
:1028900018EE100AFDF72BFF41EC1B0B53EC1B2B22
:1028A0009FEDBF0B51EC100BFDF75CFE41EC190BDB
:1028B0002846FDF7C6FE41EC1A0B53EC192BFDF729
:1028C00041FF12D818EE100AFDF711FF41EC1A0B68
:1028D00053EC1A2B9FEDB20B51EC100BFDF742FE9F
:1028E00041EC190BFDF7CBFE05462846FDF7A9FE86
:1028F00041EC1A0B9FEDAC0B53EC102BFDF7C0FD18
:1029000041EC190BFDF736FFA9490860022C01DDE7
:10291000022402E0002C00DA0024012C37D1A44864
:10292000D0ED000AB0EE001A81EE200A30EE080A5F
:10293000A04880ED000A9FEDA00AA04880ED540A4F
:102940009C4890ED000AC8EE000A9C48C0ED530A6E
:1029500090ED530A80ED520A9FED970A80ED570AD9
:102960009348D0ED000AB0EE001A81EE200A30EE56
:10297000480A9048D0ED000A80EE201A8F4880ED7A
:10298000561AB7EE000A80ED550AC5E0C7E0884840
:1029900090ED000A20EE000A20EE080A20EE080A58
:1029A00010EE101A0846FDF7A2FE41EC1A0B18EEC5
:1029B000100AFDF79CFE41EC1D0B7D480068FDF7F9
:1029C00096FE41EC1F0B9FED7E0B53EC102BFDF799
:1029D00057FD41EC1E0B53EC1D2BFDF751FD41EC57
:1029E0001C0B9FED790B53EC102BFDF7A2FC41EC77
:1029F0001B0B53EC1A2BFDF79CFC41EC190BFDF75C
:102A0000B9FE734908606A4890ED000A20EE000A9A
:102A100020EE080A20EE080A0846D0ED000A80EEF3
:102A2000201A664880ED541A90ED540AF0EE000A20
:102A300020EE200A80ED530A90ED540A80ED520AF0
:102A400008460068FDF753FE41EC190B584890ED1D
:102A5000000A20EE000A20EE080A20EE080A10EE16
:102A6000101A0846FDF743FE41EC1B0B18EE100A46
:102A7000FDF73DFECDE900014D480068FDF737FE4A
:102A800041EC1E0B9FED4E0B53EC102BFDF7F8FCA9
:102A900041EC1D0B9DED000B53EC102BFDF7F0FCF2
:102AA00041EC1C0B53EC1B2BFDF7E4FC41EC1A0B27
:102AB0009FED450B53EC102BFDF7DCFC53EC192B71
:102AC000CDE902019DED020B51EC100BFDF74AFD23
:102AD00041EC1F0BFDF74EFE3849C1F85C0134484C
:102AE00090ED000AF0EE000A20EE200AD0ED000A78
:102AF00020EE200A60EE080AB2EE000A00EEC80AD4
:102B00003348D0ED000A80EE201A084680ED561AB0
:102B1000B7EE000A80ED550A0120204908601CB973
:102B20002648C0ED038A32E0244890ED010A80ED8A
:102B3000020A90ED000A80ED010AC0ED008A90EDD6
:102B4000040A80ED050A90ED030A80ED040A90ED79
:102B5000560AD0ED040A20EE200AD0ED570A90ED77
:102B6000051A00EE810AD0ED520A90ED001A00EE2F
:102B7000810AD0ED530A90ED011A00EE810AD0EDE2
:102B8000540A90ED021A00EE810A80ED030A0B4808
:102B900090ED030A05B0BDEC108B30BDE0160020AF
:102BA000000000000000D03F1F85EB51B81E194007
:102BB000E4160020E816002000000000684800200D
:102BC00039B4C876BE9F06400000000000001040E7
:102BD000EC16002010B52DED108B86B00446F0EEFB
:102BE000408AB0EE608AB0EE41FAF0EE61FAEF484A
:102BF000006800287ED118EE100AFDF778FD41EC40
:102C00001B0B53EC1B2B9FEDEA0B51EC100BFDF74C
:102C1000A9FC41EC190B18EE900AFDF768FD41EC98
:102C20001A0B53EC192BFDF78DFD13D818EE100A73
:102C3000FDF75DFD41EC1A0B53EC1A2B9FEDDC0BFD
:102C400051EC100BFDF78EFC41EC190BFDF792FDDA
:102C500008EE900A18EE900AFDF749FD41EC1A0BB8
:102C60009FEDD50B53EC102BFDF70AFC41EC190B33
:102C7000FDF780FDD2490860032C01DD032402E04A
:102C8000012C00DA0124012C38D1CD48D0ED000A06
:102C9000B0EE001A81EE200A30EE080AC94880ED35
:102CA000000A9FEDC90AC94880ED5A0AC54890ED4F
:102CB000000AC8EE000AC548C0ED590A90ED590A4D
:102CC00080ED580A9FEDC00A80ED5D0ABC48D0ED4A
:102CD000000AB0EE001A81EE200A30EE480AB94828
:102CE000D0ED000A80EE201AB84880ED5C1AB7EEED
:102CF000000A00E018E180ED5B0A12E1022C7DD1B0
:102D0000AF4890ED000A20EE000A20EE080A20EEFF
:102D1000080A10EE101A0846FDF7E9FC41EC1A0B00
:102D200018EE100AFDF7E3FC41EC1C0BA448006808
:102D3000FDF7DDFC41EC1E0B9FEDA50B53EC102BBA
:102D4000FDF79EFB41EC1D0B53EC1C2BFDF798FB94
:102D50009FEDA10B53EC102BCDE904019DED040B6D
:102D600051EC100BFDF7E5FA41EC1B0B53EC1A2B61
:102D7000FDF7DFFA41EC190BFDF7FCFC9849086000
:102D80008F4890ED000A20EE000A20EE080A20EE9F
:102D9000080A0846D0ED000A80EE201A8B4880ED24
:102DA0005A1A90ED5A0AF0EE000A20EE200A80ED41
:102DB000590A90ED5A0A80ED580A08460068FDF756
:102DC00096FC41EC1D0B7E4890ED000A20EE000AB7
:102DD00020EE080A20EE080A10EE101A0846FDF749
:102DE00086FC41EC1A0B18EE100AFDF780FCCDE9C9
:102DF000000173480068FDF77AFC00E050E041EC08
:102E00001C0B9FED730B53EC102BFDF739FB41ECC2
:102E10001B0B9DED000B53EC102BFDF731FB53EC1E
:102E20001A2BCDE902019DED020B51EC100BFDF7C1
:102E300021FB41EC190B9FED680B53EC102BFDF7B8
:102E400019FB41EC1E0B53EC1D2BFDF78BFBCDE961
:102E500004019DED040B51EC100BFDF78BFC5B495D
:102E6000C1F87401564890ED000AF0EE000A20EE19
:102E7000200AD0ED000A20EE200A60EE080AB2EE29
:102E8000000A00EEC80A5648D0ED000A80EE201A6B
:102E9000084680ED5C1AB7EE000A80ED5B0A40E060
:102EA0004748D0ED000AB0EE001A81EE200A30EE5D
:102EB000080A444880ED000A9FED430A434880ED2C
:102EC0005A0A3F48D0ED000AB8EE001A81EE200AF7
:102ED0003C48D0ED000A80EE201A3C4880ED591A9B
:102EE00090ED590AFFEE000A20EE200A80ED580A04
:102EF0009FED350A80ED5D0A3148D0ED000AB0EE55
:102F0000001A81EE200A30EE480A2E48D0ED000A61
:102F100080EE201A2D4880ED5C1AB7EE000A80ED95
:102F20005B0A0120214908601CB9284880ED09FA94
:102F300032E0264890ED070A80ED080A90ED060A77
:102F400080ED070A80ED06FA90ED0A0A80ED0B0A83
:102F500090ED090A80ED0A0A90ED5C0AD0ED0A0AAC
:102F600020EE200AD0ED5D0A90ED0B1A00EE810AEA
:102F7000D0ED580A90ED061A00EE810AD0ED590AFC
:102F800090ED071A00EE810AD0ED5A0A90ED081A6A
:102F900000EE810A80ED090A0C4890ED090A20EE46
:102FA0002F0A06B0BDEC108B10BD0000F0160020FB
:102FB000000000000000D03F1F85EB51B81E1940F3
:102FC000F4160020F81600200000000068480020D9
:102FD00039B4C876BE9F06400000000000001040D3
:102FE000FC16002010B52DED0A8BF0EE408AB0EEF5
:102FF000608AB0EE419A5D48006800287DD118EEE5
:10300000100AFDF774FB41EC1C0B53EC1C2B9FEDDD
:10301000580B51EC100BFDF7A5FA41EC1A0B18EE0A
:10302000900AFDF764FB41EC1B0B53EC1A2BFDF7E8
:1030300089FB13D818EE100AFDF759FB41EC1B0B66
:1030400053EC1B2B9FED4A0B51EC100BFDF78AFA4A
:1030500041EC1A0BFDF78EFB08EE900A18EE900A71
:10306000FDF745FB41EC1B0B9FED430B53EC102B85
:10307000FDF706FA41EC1A0BFDF77CFB40490860AE
:103080000846D0ED000AB0EE001A81EE200A30EEBC
:10309000080A3C4880ED000A0068FDF728FB41EC77
:1030A0001B0B53EC1B2B9FED380B51EC100BFDF75A
:1030B00059FA41EC1A0BFDF75DFB3549C1F8D40113
:1030C000084690ED750A10EE101A0846FDF70FFB42
:1030D00041EC1B0B9FED2F0B53EC102BFDF7D0F9A0
:1030E00041EC1A0BFDF746FB2949C1F8D0012448F1
:1030F000D0ED000AB0EE001A00E012E081EE200AE6
:1031000030EE480A1F48D0ED000A80EE201A08462B
:1031100080ED771AB7EE000A80ED760A0120134998
:1031200008601B4890ED3E0A80ED3F0A80ED3E9A14
:1031300090ED400A80ED410A90ED770AD0ED410A0A
:1031400020EE200AD0ED740A90ED3E1A00EE810ABE
:10315000D0ED750A90ED3F1A00EE810A80ED400A2D
:1031600090ED400ABDEC0A8B10BD0000481700200E
:10317000000000000000D03F1F85EB51B81E194031
:103180004C1700205017002000000000000000C075
:1031900068480020000000000000F0BF00B52DEDE1
:1031A000028B97B05A4890ED000A10EE101A0846AC
:1031B000FDF79DFA41EC180BB0EE480AF0EE680AF4
:1031C0000BF090FF534880ED020B514890ED010A3F
:1031D00010EE101A0846FDF78AFA41EC180BB0EE13
:1031E000480AF0EE680A0BF07DFF4A4880ED000BBC
:1031F000474890ED020A474880ED040A464890EDA2
:10320000000A10EE101A0846FDF771FA41EC180B8F
:10321000B0EE480AF0EE680A0BF064FF3F4880ED1C
:10322000020B3D4890ED010A10EE101A0846FDF71A
:103230005EFA41EC180BB0EE480AF0EE680A0BF0AB
:1032400051FF364880ED000B334890ED020A10EE36
:10325000101A0846FDF74BFA304AC2E9040130481B
:1032600090ED460A2F4880ED000A2F4890ED230A82
:103270002C4880ED010A9FED2D0A80ED020A3022D4
:10328000264902A8FCF7CDFF2249D1E90401CDE986
:10329000000120480FC805F013FA254880ED000A08
:1032A000C0ED010A80ED021A28221C490831684647
:1032B000FCF7B7FF1B4890ED021AD0ED010A90ED24
:1032C000000A16480CC80BA805F0DAFF30220BA93B
:1032D0001848FCF7A6FF242216490C316846FCF773
:1032E000A0FF134890ED011AF0EE410A90ED001A8C
:1032F000B0EE410A0F480EC812A803F057FF14227F
:1033000012A90D48FCF78DFF17B0BDEC028B00BD74
:10331000B01A0020D03E0020A41A0020A03E0020B9
:10332000483B0020903E0020CC3C002000000000E4
:10333000B440002050400020A04000200348007806
:10334000012801D1002070470220FCE70F00002077
:1033500010B52DED0A8BF0EE408AB0EE608AB0EE2B
:10336000419A5D48006800287DD118EE100AFDF7EB
:10337000BEF941EC1C0B53EC1C2B9FED580B51EC90
:10338000100BFDF7EFF841EC1A0B18EE900AFDF761
:10339000AEF941EC1B0B53EC1A2BFDF7D3F913D804
:1033A00018EE100AFDF7A3F941EC1B0B53EC1B2B95
:1033B0009FED4A0B51EC100BFDF7D4F841EC1A0BC2
:1033C000FDF7D8F908EE900A18EE900AFDF78FF98C
:1033D00041EC1B0B9FED430B53EC102BFDF750F80A
:1033E00041EC1A0BFDF7C6F9404908600846D0EDDC
:1033F000000AB0EE001A81EE200A30EE080A3C48BE
:1034000080ED000A0068FDF772F941EC1B0B53ECEC
:103410001B2B9FED380B51EC100BFDF7A3F841EC83
:103420001A0BFDF7A7F93549C1F83C01084690EDA4
:103430004F0A10EE101A0846FDF759F941EC1B0B24
:103440009FED2F0B53EC102BFDF71AF841EC1A0BE4
:10345000FDF790F92949C1F838012448D0ED000A58
:10346000B0EE001A00E012E081EE200A30EE480AC9
:103470001F48D0ED000A80EE201A084680ED511A50
:10348000B7EE000A80ED500A0120134908601B487E
:1034900090ED1E0A80ED1F0A80ED1E9A90ED200A25
:1034A00080ED210A90ED510AD0ED210A20EE200A8C
:1034B000D0ED4E0A90ED1E1A00EE810AD0ED4F0AB3
:1034C00090ED1F1A00EE810A80ED200A90ED200A8F
:1034D000BDEC0A8B10BD0000B416002000000000F7
:1034E0000000D03F1F85EB51B81E1940B8160020D0
:1034F000BC16002000000000000000C0E8460020CC
:10350000000000000000F0BF10B52DED108B86B05C
:103510000446F0EE408AB0EE608AB0EE41FAE04830
:10352000006800287ED118EE100AFDF7E0F841ECA3
:103530001B0B53EC1B2B9FEDDB0B51EC100BFDF722
:1035400011F841EC190B18EE900AFDF7D0F841EC98
:103550001A0B53EC192BFDF7F5F813D818EE100AD7
:10356000FDF7C5F841EC1A0B53EC1A2B9FEDCD0B70
:1035700051EC100BFCF7F6FF41EC190BFDF7FAF8D4
:1035800008EE900A18EE900AFDF7B1F841EC1A0B1C
:103590009FEDC60B53EC102BFCF772FF41EC190B9F
:1035A000FDF7E8F8C3490860022C01DD022402E0BF
:1035B000012C00DA0124012C59D1BE48D0ED000ABB
:1035C000B0EE001A81EE200A30EE080ABA4880ED0B
:1035D000000A9FEDBA0ABA4880ED580AB64800685A
:1035E000FDF785F841EC1A0B53EC1A2B9FEDB50B48
:1035F00051EC100BFCF7B6FF41EC190BFDF7BAF8D4
:10360000AF49C1F85C01084690ED570A10EE101A58
:103610000846FDF76CF841EC1A0B9FEDAC0B53EC30
:10362000102B00E003E1FCF72BFF41EC190BFDF739
:10363000A1F8A349C1F858019FEDA00A084680ED02
:103640005B0A9C48D0ED000AB0EE001A81EE200A19
:1036500030EE480A9848D0ED000A80EE201A08465D
:1036600080ED5A1AB7EE000A80ED590ADCE0914865
:1036700090ED000A20EE000A20EE080A20EE080A6B
:1036800010EE101A0846FDF732F841EC1A0B18EE4E
:10369000100AFDF72CF841EC1D0B86480068FDF779
:1036A00026F89FED8C0B53EC102BCDE904019DED1A
:1036B000040B51EC100BFCF7E3FE41EC1E0B53EC3A
:1036C0001D2BFCF7DDFE41EC1C0B9FED840B53EC36
:1036D000102BFCF72EFE41EC1B0B53EC1A2BFCF7C6
:1036E00028FE41EC190BFDF745F87E49086071484A
:1036F00090ED000A20EE000AF0EE000A20EE200A0B
:1037000020EE480A0846D0ED000A80EE201A6C48E8
:1037100080ED581A9FED690A80ED570A90ED580A1E
:1037200010EE101A0846FCF7E2FF41EC1A0B9FED71
:10373000670B53EC102BFCF7A3FE41EC190BFDF7C4
:1037400019F85F49C1F8580166480068FCF7CFFFD7
:1037500041EC1E0B574890ED000A20EE000A20EEC7
:10376000080A20EE080A10EE101A0846FCF7BFFF00
:10377000CDE9000118EE100AFCF7B9FF41EC1B0B74
:103780004C480068FCF7B3FF41EC1D0B9FED510B5B
:1037900053EC102BFCF774FE41EC1C0B53EC1B2B71
:1037A000FCF76EFE41EC1A0B9DED000B53EC102B59
:1037B000FCF760FE41EC190B9FED480B53EC102B0E
:1037C000FCF758FE53EC1E2BCDE902019DED020BD8
:1037D00051EC100BFCF7C6FECDE904019DED040B86
:1037E00051EC100BFCF7C6FF3549C1F86C013148AC
:1037F00090ED000AF0EE000A20EE200AD0ED000A5B
:1038000020EE200A60EE080AB2EE000A00EEC80AB6
:103810003448D0ED000A80EE201A084680ED5A1A8E
:10382000B7EE000A80ED590A01201D4908602448BE
:1038300090ED270A80ED280A90ED260A80ED270AF0
:1038400080ED26FA90ED2A0A80ED2B0A90ED290AE8
:1038500080ED2A0A90ED5A0AD0ED2A0A20EE200ABD
:10386000D0ED5B0A90ED2B1A00EE810AD0ED560ADE
:1038700090ED261A00EE810AD0ED570A90ED271A36
:1038800000EE810AD0ED580A90ED281A00EE810A68
:1038900080ED290A90ED290A06B0BDEC108B10BD11
:1038A000CC160020000000000000D03F1F85EB5127
:1038B000B81E1940D0160020D416002000000000C9
:1038C000E846002000000000000000C000000000EA
:1038D0000000F0BF39B4C876BE9F0640000000006B
:1038E00000001040D816002030B52DED108B85B0AB
:1038F00004460D46B0EE408AF0EE608AC448006887
:1039000000287DD118EE100AFCF7F1FE41EC1B0BEC
:1039100053EC1B2B9FEDBF0B51EC100BFCF722FE61
:1039200041EC190B2846FCF78CFE41EC1A0B53ECCA
:10393000192BFCF707FF12D818EE100AFCF7D7FE78
:1039400041EC1A0B53EC1A2B9FEDB20B51EC100B00
:10395000FCF708FE41EC190BFCF791FE05462846E2
:10396000FCF76FFE41EC1A0B9FEDAC0B53EC102BE8
:10397000FCF786FD41EC190BFCF7FCFEA949086039
:10398000022C01DD022402E0002C00DA0024012CCC
:1039900037D1A448D0ED000AB0EE001A81EE200A1B
:1039A00030EE080AA04880ED000A9FEDA00AA0486A
:1039B00080ED320A9C4890ED000AC8EE000A9C484F
:1039C000C0ED310A90ED310A80ED300A9FED970A83
:1039D00080ED350A9348D0ED000AB0EE001A81EE72
:1039E000200A30EE480A9048D0ED000A80EE201AF6
:1039F0008F4880ED341AB7EE000A80ED330AC5E037
:103A0000C7E0884890ED000A20EE000A20EE080A80
:103A100020EE080A10EE101A0846FCF768FE41EC8A
:103A20001A0B18EE100AFCF762FE41EC1D0B7D48E4
:103A30000068FCF75CFE41EC1F0B9FED7E0B53EC26
:103A4000102BFCF71DFD41EC1E0B53EC1D2BFCF75E
:103A500017FD41EC1C0B9FED790B53EC102BFCF781
:103A600068FC41EC1B0B53EC1A2BFCF762FC41EC9D
:103A7000190BFCF77FFE734908606A4890ED000A55
:103A800020EE000A20EE080A20EE080A0846D0EDD3
:103A9000000A80EE201A664880ED321A90ED320A54
:103AA000F0EE000A20EE200A80ED310A90ED320A95
:103AB00080ED300A08460068FCF719FE41EC190B4E
:103AC000584890ED000A20EE000A20EE080A20EE89
:103AD000080A10EE101A0846FCF709FE41EC1B0B11
:103AE00018EE100AFCF703FECDE900014D4800680E
:103AF000FCF7FDFD41EC1E0B9FED4E0B53EC102B24
:103B0000FCF7BEFC41EC1D0B9DED000B53EC102BA4
:103B1000FCF7B6FC41EC1C0B53EC1B2BFCF7AAFC8E
:103B200041EC1A0B9FED450B53EC102BFCF7A2FC5C
:103B300053EC192BCDE902019DED020B51EC100B5A
:103B4000FCF710FD41EC1F0BFCF714FE3849C1F8DF
:103B5000D400344890ED000AF0EE000A20EE200A6E
:103B6000D0ED000A20EE200A60EE080AB2EE000A4C
:103B700000EEC80A3348D0ED000A80EE201A08464D
:103B800080ED341AB7EE000A80ED330A0120204997
:103B900008601CB92648C0ED038A32E0244890ED45
:103BA000010A80ED020A90ED000A80ED010AC0EDE5
:103BB000008A90ED040A80ED050A90ED030A80ED7D
:103BC000040A90ED340AD0ED040A20EE200AD0ED6C
:103BD000350A90ED051A00EE810AD0ED300A90ED1D
:103BE000001A00EE810AD0ED310A90ED011A00EEC4
:103BF000810AD0ED320A90ED021A00EE810A80EDC2
:103C0000030A0B4890ED030A05B0BDEC108B30BDE4
:103C100058160020000000000000D03F1F85EB5127
:103C2000B81E19405C16002060160020000000003D
:103C3000E846002039B4C876BE9F06400000000068
:103C4000000010406416002010B52DED108B86B0DA
:103C50000446F0EE408AB0EE608AB0EE41FAEE48DB
:103C6000006800287ED118EE100AFCF740FD41ECF8
:103C70001B0B53EC1B2B9FEDE90B51EC100BFCF7CE
:103C800071FC41EC190B18EE900AFCF730FD41EC89
:103C90001A0B53EC192BFCF755FD13D818EE100A2C
:103CA000FCF725FD41EC1A0B53EC1A2B9FEDDB0BB7
:103CB00051EC100BFCF756FC41EC190BFCF75AFDCC
:103CC00008EE900A18EE900AFCF711FD41EC1A0B71
:103CD0009FEDD40B53EC102BFCF7D2FB41EC190BEE
:103CE000FCF748FDD1490860032C01DD032402E004
:103CF000002C00DA0024012C38D1CC48D0ED000A89
:103D0000B0EE001A81EE200A30EE080AC84880EDB5
:103D1000000A9FEDC80AC84880ED380AC44890EDF3
:103D2000000AC8EE000AC448C0ED370A90ED370A11
:103D300080ED360A9FEDBF0A80ED3B0ABB48D0ED0F
:103D4000000AB0EE001A81EE200A30EE480AB848A8
:103D5000D0ED000A80EE201AB74880ED3A1AB7EE8F
:103D6000000A00E018E180ED390A12E1022C7DD151
:103D7000AE4890ED000A20EE000A20EE080A20EE80
:103D8000080A10EE101A0846FCF7B1FC41EC1A0BB9
:103D900018EE100AFCF7ABFC41EC1D0BA3480068C1
:103DA000FCF7A5FC9FEDA50B53EC102BCDE904010E
:103DB0009DED040B51EC100BFCF762FB41EC1E0B6C
:103DC00053EC1D2BFCF75CFB41EC1C0B9FED9D0B9A
:103DD00053EC102BFCF7ADFA41EC1B0B53EC1A2BF8
:103DE000FCF7A7FA41EC190BFCF7C4FC97490860F3
:103DF0008E4890ED000A20EE000A20EE080A20EE20
:103E0000080A0846D0ED000A80EE201A8A4880EDA4
:103E1000381A90ED380AF0EE000A20EE200A80ED04
:103E2000370A90ED380A80ED360A08460068FCF73C
:103E30005EFC41EC1E0B7D4890ED000A20EE000A6E
:103E400020EE080A20EE080A10EE101A0846FCF7C9
:103E50004EFCCDE9000118EE100AFCF748FC41ECDD
:103E60001B0B72480068FCF742FC00E050E041EC9C
:103E70001D0B9FED720B53EC102BFCF701FB41EC7B
:103E80001C0B53EC1B2BFCF7FBFA41EC1A0B9DEDC2
:103E9000000B53EC102BFCF7EDFA41EC190B9FEDE6
:103EA000690B53EC102BFCF7E5FA53EC1E2BCDE914
:103EB00002019DED020B51EC100BFCF753FBCDE919
:103EC00004019DED040B51EC100BFCF753FC5A4917
:103ED000C1F8EC00554890ED000AF0EE000A20EE23
:103EE000200AD0ED000A20EE200A60EE080AB2EEA9
:103EF000000A00EEC80A5548D0ED000A80EE201AEC
:103F0000084680ED3A1AB7EE000A80ED390A40E023
:103F10004648D0ED000AB0EE001A81EE200A30EEDD
:103F2000080A434880ED000A9FED420A424880EDAE
:103F3000380A3E48D0ED000AB8EE001A81EE200A99
:103F40003B48D0ED000A80EE201A3B4880ED371A3E
:103F500090ED370AFFEE000A20EE200A80ED360AC7
:103F60009FED340A80ED3B0A3048D0ED000AB0EEF8
:103F7000001A81EE200A30EE480A2D48D0ED000AE2
:103F800080EE201A2C4880ED3A1AB7EE000A80ED38
:103F9000390A0120204908601CB9274880ED09FA38
:103FA00032E0254890ED070A80ED080A90ED060AF8
:103FB00080ED070A80ED06FA90ED0A0A80ED0B0A03
:103FC00090ED090A80ED0A0A90ED3A0AD0ED0A0A4E
:103FD00020EE200AD0ED3B0A90ED0B1A00EE810A8C
:103FE000D0ED360A90ED061A00EE810AD0ED370AC0
:103FF00090ED071A00EE810AD0ED380A90ED081A0C
:1040000000EE810A80ED090A0B4890ED090A06B01E
:10401000BDEC108B10BD00006816002000000000F1
:104020000000D03F1F85EB51B81E19406C160020D0
:104030007016002000000000E846002039B4C87661
:10404000BE9F0640000000000000104074160020D3
:1040500010B52DED0A8BF0EE408AB0EE608AB0EE1E
:10406000419A5D48006800287DD118EE100AFCF7DF
:104070003EFB41EC1C0B53EC1C2B9FED580B51EC01
:10408000100BFCF76FFA41EC1A0B18EE900AFCF7D4
:104090002EFB41EC1B0B53EC1A2BFCF753FB13D8F4
:1040A00018EE100AFCF723FB41EC1B0B53EC1B2B07
:1040B0009FED4A0B51EC100BFCF754FA41EC1A0B34
:1040C000FCF758FB08EE900A18EE900AFCF70FFB7D
:1040D00041EC1B0B9FED430B53EC102BFCF7D0F97D
:1040E00041EC1A0BFCF746FB404908600846D0ED4E
:1040F000000AB0EE001A81EE200A30EE080A3C48B1
:1041000080ED000A0068FCF7F2FA41EC1B0B53EC5F
:104110001B2B9FED380B51EC100BFCF723FA41ECF5
:104120001A0BFCF727FB3549C1F84C01084690ED06
:10413000530A10EE101A0846FCF7D9FA41EC1B0B93
:104140009FED2F0B53EC102BFCF79AF941EC1A0B57
:10415000FCF710FB2949C1F848012448D0ED000ABA
:10416000B0EE001A00E012E081EE200A30EE480ABC
:104170001F48D0ED000A80EE201A084680ED551A3F
:10418000B7EE000A80ED540A0120134908601B486D
:1041900090ED220A80ED230A80ED229A90ED240A08
:1041A00080ED250A90ED550AD0ED250A20EE200A73
:1041B000D0ED520A90ED221A00EE810AD0ED530A9A
:1041C00090ED231A00EE810A80ED240A90ED240A76
:1041D000BDEC0A8B10BD0000C016002000000000DE
:1041E0000000D03F1F85EB51B81E1940C4160020B7
:1041F000C816002000000000000000C0E8460020B3
:10420000000000000000F0BF38B50246002000901A
:1042100000BF92F83C00012801D1022038BD0120E6
:1042200082F83C0000BF0868092816D91068C068E9
:104230000C780A3C04EB44050724AC40A043146806
:10424000E0600C780A3C04EB44048868A0401468E1
:10425000E46820431468E06013E0106800690C789B
:1042600004EB44050724AC40A043146820610C789B
:1042700004EB44048868A04014682469204314684F
:1042800020614868072817D21068406B0C79641EBB
:1042900004EB84051F24AC40A043146860630888C5
:1042A00080B20C79641E04EB8404A0401468646B33
:1042B00020431468606331E048680D2817D2106805
:1042C000006B0C79E41F04EB84051F24AC40A04371
:1042D00014682063088880B20C79E41F04EB84041E
:1042E000A0401468246B20431468206316E0106813
:1042F000C06A0C790D3C04EB84051F24AC40A0433C
:104300001468E062088880B20C790D3C04EB8404E8
:10431000A0401468E46A20431468E062194B1A4C08
:104320001068A04206D10868122803D1586840F4EA
:1043300080005860144C1068A0421CD108681028F6
:1043400002D00868112816D1586840F4000058605F
:10435000086810280FD10D4800680D4CB0FBF4F030
:1043600000EB80004000009002E00098401E0090AA
:1043700000980028F9D100BF002082F83C0000BF5F
:1043800000BF4BE70023014000200140FC0000205B
:1043900040420F00704770477047000070B50446F8
:1043A00000250CB9012070BD1549A06A884200D0D3
:1043B00000BF206C30B9204600F024F80020606473
:1043C00084F83C00206C00F0100088B9206C20F4C8
:1043D000885040F0020020642046FCF7A1FE002037
:1043E0006064206C20F0020040F00100206400E0D6
:1043F000012500BF002084F83C0000BF2846D2E71A
:104400000100000F10B586B00446142101A8FBF787
:1044100021FF28492068884249D100BF0020009030
:104420002548006840F48070234908600846006809
:1044300000F48070009000BF00BF00BF002000901B
:104440001D481438006840F001001B491439086009
:104450000846006800F00100009000BF00BF022085
:104460000190032002900020039001A9134800F05E
:1044700097FB134813490860002048600021114849
:104480008160C1604FF48061016149004161890030
:1044900081610021C1610162416200F0C1FA08B18D
:1044A000FDF730FE00BF0748A063846300BF06B07D
:1044B00010BD0000002001404438024000000240CE
:1044C00010640240701B00202DE9F84304460D469D
:1044D000164600200090804600BF94F83C0001285A
:1044E00002D10220BDE8F883012084F83C0000BF1F
:1044F0002068806800F00100A0B92068806840F062
:10450000010021688860564800685649B0FBF1F008
:1045100000EB4000009002E00098401E00900098E0
:104520000028F9D12068806800F48070B0F5807FA1
:1045300005D12068806820F4807021688860206838
:10454000806800F0010000287FD0206C40F20161FB
:10455000884340F4807020642068406800F48060E4
:1045600028B1206C20F4005040F480502064206C6E
:1045700000F48050B0F5805F04D1606C20F006003C
:10458000606401E00020606400BF002084F83C000B
:1045900000BF354F3548A16BC8633548A16B08642F
:1045A0003448A16BC8646FF022002168086020685D
:1045B000406840F08060216848602068806840F46E
:1045C000807021688860226802F14C0133462A46D7
:1045D000A06B00F09BFA8046786800F01F0018BBC3
:1045E00025492068884213D024492068884204D194
:1045F000381D006800F01F0050B121492068884232
:104600002BD11948001D006800F01F00102824D28B
:104610002068806800F04050F8B92068806840F059
:1046200080402168886018E013492068884214D1CE
:104630002068806800F0405078B92068806840F0B9
:1046400080402168886008E0FFE7206C40F010009F
:104650002064606C40F001006064404642E7000066
:10466000FC00002040420F00002301405B100008C6
:10467000F3100008D910000800200140002101407B
:104680000022014070B50446002500BF94F83C00AC
:10469000012801D1022070BD012084F83C0000BF38
:1046A0002068806820F001002168886020688068A8
:1046B00000F00100F8B92068806820F4807021685B
:1046C0008860A06B90F83500022808D1A06B00F03C
:1046D00019F805461DB1206C40F0400020642068A8
:1046E000406820F0806021684860206C20F4885089
:1046F00040F00100206400BF002084F83C0000BFAF
:104700002846C8E770B50446A56D00F05BFB064679
:1047100094F83500022808D08020606500BF002092
:1047200084F8340000BF012070BD2068006820F0CC
:104730001600216808602068406920F08000216828
:104740004861206C08B9A06C28B12068006820F08E
:104750000800216808602068006820F001002168D6
:10476000086010E000F02EFB801B05280BD92020EC
:104770006065032084F8350000BF002084F8340011
:1047800000BF0320D0E72068006800F00100002887
:10479000E8D194F85C103F208840A860012084F89C
:1047A000350000BF002084F8340000BF00BFBBE725
:1047B000014691F83500022803D080204865012089
:1047C0007047052081F835000868006820F0010076
:1047D0000A6810600020F3E70146486D704700004A
:1047E000F8B50446002000908C4800684FF416513C
:1047F000B0FBF1F7A56D2E6894F85C100820884096
:10480000304098B12068006800F0040070B1206862
:10481000006820F004002168086094F85C1008200B
:104820008840A860606D40F00100606594F85C10FD
:1048300001208840304068B12068406900F0800065
:1048400040B194F85C1001208840A860606D40F091
:104850000200606594F85C1004208840304068B124
:104860002068006800F0020040B194F85C10042059
:104870008840A860606D40F00400606594F85C10AA
:1048800010208840304078B32068006800F00800AD
:1048900050B394F85C1010208840A860206800682D
:1048A00000F4802080B12068006800F4002028B95E
:1048B000206CC8B12046216C884715E0A06C98B1E7
:1048C0002046A16C88470FE02068006800F48070E3
:1048D00028B92068006820F0080021680860206C72
:1048E00010B12046216C884794F85C102020884045
:1048F0003040002865D02068006800F010000028D3
:104900005FD094F85C1020208840A86094F83500AF
:10491000052828D12068006820F01600216808606A
:104920002068406920F0800021684861206C08B947
:10493000A06C28B12068006820F008002168086099
:1049400094F85C103F208840A860012084F835006E
:1049500000BF002084F8340000BF206D10B1204655
:10496000216D8847F8BD2068006800F4802080B180
:104970002068006800F4002028B9606C10B120465F
:10498000616C88471DE0E06BD8B12046E16B884739
:1049900017E02068006800F4807068B9206800683B
:1049A00020F0100021680860012084F8350000BF65
:1049B000002084F8340000BFE06B10B12046E16BAA
:1049C0008847606D38B3606D00F00100F0B10520DC
:1049D00084F835002068006820F001002168086034
:1049E00000BF0098401C0090B84200D905E0206844
:1049F000006800F001000028F3D100BF012084F816
:104A0000350000BF002084F8340000BFE06C10B116
:104A10002046E16C884700BFA4E70000FC000020AE
:104A20002DE9F0410446002500F0CCF9074614B901
:104A30000120BDE8F081606A00B100BF022084F867
:104A4000350000BF002084F8340000BF20680068F3
:104A500020F00100216808600AE000F0B3F9C01BF3
:104A6000052805D920206065032084F83500E0E79B
:104A70002068006800F001000028EED12068056879
:104A800021480540D4E901010843E1680843216950
:104A9000084361690843A1690843E1690843216A41
:104AA00008430543606A042803D1D4E90B01084395
:104AB0000543206805602068456925F00705606AA0
:104AC0000543606A04280DD1A06A0543E06A48B135
:104AD0002046FDF7ABFA28B140206065012084F83C
:104AE0003500A6E7206845612046FDF785FA0646B1
:104AF00094F85C103F208840B06000206065012081
:104B000084F83500002094E73F8010F02DE9F0474D
:104B100004460D4616461F464FF00008D4F858903C
:104B200000BF94F83400012802D10220BDE8F087CC
:104B3000012084F8340000BF94F83500012825D105
:104B4000022084F83500002060653B463246294645
:104B50002046FDF7C0FA94F85C103F208840C9F861
:104B600008002068006840F0160021680860206C8A
:104B700028B12068006840F00800216808602068BB
:104B8000006840F001002168086006E000BF0020D6
:104B900084F8340000BF4FF002084046C6E700002A
:104BA000F8B502460B460025002400200021D6E07F
:104BB000012606FA01F51E6806EA0504AC4274D126
:104BC0001E7906F00306012E04D01E7906F00306B6
:104BD000022E13D190684F000326BE40B0434F0011
:104BE000DE68BE4030439060506801268E40B0437E
:104BF0001E79C6F300168E40304350601E7906F0D1
:104C00000306032E09D0D0684F000326BE40B043F0
:104C10004F009E68BE403043D0601E7906F0030608
:104C2000022E13D1CF0802F1200656F827004E07B6
:104C3000F70E0F26BE40B0434F07FF0E1E69BE4061
:104C40003043CF0802F1200646F8270010684F00D5
:104C50000326BE40B0431E7906F003064F00BE4057
:104C6000304310605E6806F44036002E76D000BFF8
:104C7000002600963C4E366846F480463A4F3E6029
:104C80003E46366806F48046009600BF00BF374EA9
:104C90008F0856F827008E07370F0F26BE40B04307
:104CA000334EB24202D1002624E057E0314EB242E8
:104CB00001D101261EE0304EB24201D1022619E098
:104CC0002E4EB24201D1032614E02D4EB24201D144
:104CD00004260FE02B4EB24201D105260AE02A4EEF
:104CE000B24201D1062605E0284EB24201D1072684
:104CF00000E008268F073F0FBE4030431B4E8F0851
:104D000046F82700224E3068A0435E6806F48016FD
:104D100006B120431E4E3060361D3068A0435E68E9
:104D200006F4001606B12043194E361D3060184EA9
:104D3000361F3068A0435E6806F4003606B1204393
:104D4000134E361F3060361F3068A0435E6806F48D
:104D5000803606B120430E4E083E3060491C1029B3
:104D6000FFF426AFF8BD0000443802400838014087
:104D7000000002400004024000080240000C024013
:104D8000001002400014024000180240001C0240C3
:104D9000083C0140024613690B400BB1012000E0C2
:104DA0000020704710B5426921EA020302EA0104BB
:104DB00043EA0443836110BD0AB1816101E00B0441
:104DC000836170470148006870470000F0000020D0
:104DD000034800680349097808440149086070479E
:104DE000F0000020F800002010B50D48006840F4E5
:104DF00000700B4908600846006840F48060086055
:104E00000846006840F480700860032000F0A6F8AF
:104E10000F2000F007F800F02BF8002010BD000074
:104E2000003C024070B504460E4800784FF47A7199
:104E3000B1FBF0F00C490968B1FBF0F5284600F031
:104E400035FF08B1012070BD102C07D20022214689
:104E5000501E00F045F80548046001E00120F2E72B
:104E60000020F0E7F8000020FC000020F400002003
:104E700008B500BF002000900E48006840F4804054
:104E80000C4908600846006800F48040009000BFAC
:104E900000BF00BF00200090081F006840F0805055
:104EA000091F08600846006800F08050009000BFAD
:104EB00000BF08BD443802400146084600280DDB0B
:104EC00000BF00BF00F01F0301229A4043099B006E
:104ED00003F1E023C3F8002100BF00BF00BF70470B
:104EE0002DE9F05F80460D461646002705F02CF8A8
:104EF000074639462A46334601F00700C0F1070A43
:104F0000BAF1040F02D94FF0040A01E0C0F1070A18
:104F1000D14600F1040ABAF1070F02D24FF0000A9D
:104F200001E0A0F1030AD4464FF0010A0AFA09FA97
:104F3000AAF1010A0AEA020A0AFA0CFA4FF0010B76
:104F40000BFA0CFBABF1010B0BEA030B4AEA0B0467
:104F50002146404605F000F8BDE8F09F00BF00F094
:104F60000702064B19684FF6FF031940044B0B4329
:104F700043EA0221014B196000BF70470CED00E0CD
:104F80000000FA057047000070B504460D460CB9E4
:104F9000012070BD5848006800F00700A84209D2FF
:104FA00055490D700846006800F00700A84201D07E
:104FB0000120EEE7207800F0020002281DD12078C1
:104FC00000F00400042805D14C48006840F4E0508B
:104FD0004A490860207800F00800082805D14748B1
:104FE000006840F46040454908604448006820F08B
:104FF000F000A168084341490860207800F00100F2
:10500000A8B36068012807D13C4808380068C0F39D
:105010004040B8B90120BCE76068022802D060684F
:10502000032807D1354808380068C0F3406048B904
:105030000120AEE7314808380068C0F3400008B9E5
:105040000120A6E72D48006820F0030061680843AE
:105050002A490860FFF7B6FE064609E0FFF7B2FEF0
:10506000801B41F28831884202D9032091E707E092
:105070002248006800F00C006168B0EB810FEDD1B0
:105080001D48006800F00700A84209D91A490D70B0
:105090000846006800F00700A84201D0012078E728
:1050A000207800F00400042807D11448006820F498
:1050B000E050E168084311490860207800F00800DA
:1050C000082808D10D48006820F46040216940EAB2
:1050D000C1000A49086000F045F808490968C1F3B1
:1050E0000311074A515CC840064908600648006839
:1050F000FFF798FE00204CE7003C024008380240D1
:10510000BC5B0108FC000020F400002001200149E4
:10511000C8647047000047420148006870470000BB
:10512000FC00002000B5FFF7F7FF04490968C1F350
:105130008221034A515CC84000BD0000083802408B
:10514000CC5B010800B5FFF7E7FF04490968C1F32C
:105150004231034A515CC84000BD0000083802409B
:10516000CC5B01082DE9F047002400250026A1466C
:105170002548006800F00C0020B1042805D008285C
:105180003AD105E0DFF8849039E0DFF8849036E02A
:105190001D48001F006800F03F041B48001F006806
:1051A00000F4800078B11A481749091F0968C1F353
:1051B0008811A0FB01700146224600233846FAF709
:1051C000FFFF05460EE011480F49091F0968C1F3AA
:1051D0008811A0FB01700146224600233846FAF7E9
:1051E000EFFF05460848001F0068C0F30140401C5F
:1051F0004600B5FBF6F902E0DFF8109000BF00BFF3
:105200004846BDE8F0870000083802400024F4005A
:105210000050C30010B50648006800F080008028E8
:1052200005D1FFF7AFFE80200149891C087010BD31
:105230000C380240F8B504460CB90120F8BD2078BE
:1052400000F00100002874D0F948006800F00C005C
:1052500004280DD0F648006800F00C00082813D18F
:10526000F348001F006800F48000B0F5800F0BD1F8
:10527000EF4808380068C0F34040002859D0606803
:10528000002856D10120D9E700BF6068B0F5803F03
:1052900008D1E7480838006840F48030E44908390C
:1052A00008601EE06068B0F5A02F0DD1E048083816
:1052B000006840F48020DE4908390860084600682C
:1052C00040F4803008600CE0D9480838006820F4C9
:1052D0008030D749083908600846006820F48020EB
:1052E000086000BF606890B1FFF76CFD054606E0FE
:1052F000FFF768FD401B642801D903209EE7CC48D6
:1053000008380068C0F340400028F1D011E0FFF7F2
:1053100059FD054606E0FFF755FD401B642801D9FD
:1053200003208BE7C24808380068C0F340400028DB
:10533000F1D1207800F0020002285FD1BC4800685B
:1053400000F00C0058B1BA48006800F00C000828C2
:105350001CD1B748001F006800F48000B0B9B44801
:1053600008380068C0F3400020B1E068012801D08F
:10537000012063E7AE480838006820F0F800216992
:1053800040EAC100AA490839086037E0E06800B384
:105390000120A8490860FFF715FD054606E0FFF764
:1053A00011FD401B022801D9032047E7A048083817
:1053B0000068C0F340000028F1D09D48083800681C
:1053C00020F0F800216940EAC100994908390860D5
:1053D00014E0002097490860FFF7F4FC054606E05A
:1053E000FFF7F0FC401B022801D9032026E7904874
:1053F00008380068C0F340000028F1D1207800F0A0
:10540000080008282CD16069A8B101208A490860E9
:10541000FFF7D8FC054606E0FFF7D4FC401B022846
:1054200001D903200AE782486C300068C0F34000CD
:105430000028F1D014E000207F490860FFF7C2FC8B
:10544000054606E0FFF7BEFC401B022801D90320F9
:10545000F4E677486C300068C0F340000028F1D1D2
:10546000207800F00400042870D1002770483830FC
:10547000006800F0805090B900BF002000906C4898
:105480003830006840F0805069493831086008467B
:10549000006800F08050009000BF00BF01276748FF
:1054A000006800F48070B0B96448006840F480700F
:1054B00062490860FFF786FC054606E0FFF782FCBC
:1054C000401B022801D90320B8E65C48006800F4BC
:1054D00080700028F2D000BFA068012808D154488D
:1054E0006830006840F001005149683108601DE0F3
:1054F000A06805280DD14E486830006840F00400CF
:105500004B49683108600846006840F001000860B7
:105510000CE047486830006820F0010044496831D9
:1055200008600846006820F00400086000BFA0681A
:10553000A8B1FFF747FC054609E0FFF743FC401B15
:1055400041F28831884202D9032077E626E03848C4
:1055500068300068C0F340000028EED013E0FFF789
:1055600031FC054608E0FFF72DFC401B41F2883175
:10557000884201D9032061E62D4868300068C0F3F5
:1055800040000028EFD1012F07D1294838300068AA
:1055900020F0805026493831086000BFA0690028FB
:1055A00045D02348006800F00C0008285DD0A069B1
:1055B000022845D100201F490866FFF703FC054675
:1055C00006E0FFF7FFFB401B022801D9032035E668
:1055D000174808380068C0F340600028F1D1D4E9CA
:1055E00007010843616A40EA81110122A06AC2EB07
:1055F000500041EA00412C20005D41EA00600C4966
:10560000091F086001200B490866FFF7DBFB054610
:1056100006E0FFF7D7FB401B022801D903200DE667
:10562000034808380068C0F340600028F1D049E022
:105630000838024000004742800E47420070004098
:10564000002021490866FFF7BDFB054606E0FFF78D
:10565000B9FB401B022801D90320EFE51B48006875
:10566000C0F340600028F2D12CE0A069012800D1ED
:10567000E4E51648001D0668A069012820D006F45C
:105680008001E06981421BD106F03F01206A81421E
:1056900016D147F6C0703040616AB0EB811F0FD160
:1056A00006F440310122A06AC2EB5000B1EB004F7A
:1056B00006D106F070612C20005DB1EB006F01D0C7
:1056C0000120BBE50020B9E5000047420038024058
:1056D00070470000F8B50446206846682068856871
:1056E000C5F3801048B905F0010030B1C6F3801051
:1056F00018B12046216C8847F8BDC5F3400030B191
:10570000C6F3C01018B12046616C8847F4E7C5F3B2
:10571000401030B9C5F3801018B9C5F30020002837
:105720007CD0C6F3401000287DD0C5F38010F0B1C6
:1057300094F8510003280ED0606D40F004006065BD
:1057400000BF002000902068C0680090206880683A
:10575000009000BF0BE000BF002000902068C068F0
:10576000009020688068009000BF00BFC4E7C5F3C8
:10577000401088B1606D40F00100606500BF0020FE
:1057800000902068806800902068006820F0400049
:105790002168086000BF00BFC5F3002058B1606DEC
:1057A00040F00800606500BF00200090206880681D
:1057B000009000BF00BF606D78B32068406820F0A3
:1057C000E00021684860012084F8510006F00200E2
:1057D000022802D006F0010008B32068406820F0DB
:1057E000030021684860E06C50B11048E16C086526
:1057F000E06CFEF7DDFF18B1606D40F040006065C1
:10580000A06C50B10948A16C0865A06CFEF7D0FFF0
:1058100018B1606D40F04000606503E003E0204691
:10582000FFF756FF68E700BF66E70000B98200088F
:1058300010B504460CB9012010BD606A38B9606823
:10584000B0F5827F00D105E00021E16102E0002196
:10585000216161610021A16294F8510028B9002002
:1058600084F85000204600F047F8022084F85100E8
:105870002068006820F0400021680860A08800F4DB
:105880008270218901F404410843A18901F4006177
:105890000843217C01F002010843217D01F0010150
:1058A0000843218B01F400710843217F01F0380186
:1058B00008432021095D01F080010843218D01F496
:1058C00000510843216808600421A06901EA1040E2
:1058D00094F8241001F01001084321684860206802
:1058E000C06920F400602168C86100206065012063
:1058F00084F8510000209FE710B586B004461421BB
:1059000001A8FAF7A7FC3D492068884273D100BF7F
:10591000002000903A48006840F480503849086000
:105920000846006800F48050009000BF00BF00BF30
:105930000020009032481438006840F001003049DF
:10594000143908600846006800F00100009000BFAC
:1059500000BFE0200190022002900020039003206D
:1059600004900520059001A92648FFF719F926485B
:10597000264908604FF0C0604860002123488160DC
:10598000C1604FF480610161002141618161C161A9
:1059900001624162FFF744F808B1FCF7B3FB00BFB6
:1059A0001A48E064846300BF17481830184908603B
:1059B0004FF0C06048604021154881600021C160FF
:1059C0004FF480610161002141618161C161016227
:1059D0004162FFF725F808B1FCF794FB00BF0C48C3
:1059E000A064846300BF002211462320FFF778FAE9
:1059F0002320FFF761FA06B010BD0000003001401F
:105A0000443802400000024040640240281C00204C
:105A1000881C00202DE9F04104460E46154694F8F6
:105A20005100012802D00220BDE8F08106B10DB975
:105A30000120F9E7A06868B96068B0F5827F09D1F4
:105A4000042084F851002B4632463146204600F0AF
:105A500079F8E9E700BF94F85000012801D102204D
:105A6000E2E7012084F8500000BF042084F85100D0
:105A700000206065A663A587E58720646064A08632
:105A8000E086A068B0F5004F0BD12068006820F0D8
:105A90004000216808602068006820F48040216888
:105AA00008601F48E16C08641E48E16CC8631E482A
:105AB000E16CC8640020E16C0865E38F276807F19A
:105AC0000C01A26BE06CFFF721F850B1606D40F063
:105AD0001000606500BF002084F8500000BF012066
